:020000040000FA
:0600000016EF0FF01200E4
:020006001200E6
:08000800F2A402D046EF0AF059
:100010009EA202D009EF0BF09EAA02D0BAEF0CF01C
:080020001200D08EF28E1200D6
:080028000700C11F00002C0FAE
:10003000000002000000BF1F00002A0F00000200A5
:100040000000BE1F0000310F0000010000009E1FD5
:100050000000000F000020000000821F0000000DC3
:1000600000001C000000F61E0000000900008C00CB
:0E0070000000781E0000000B00007E00000063
:02007E00D9CFD8
:10008000E6FFE1CFD9FF080EE126DF6A080EDF5C4C
:1000900027E2010EDF5206E0DFCFF3FFE846FE0B5A
:1000A000F306FCE1816EE80EF36E020EF3CFDBFF88
:1000B000030EF36EF3CFDBFF020EDBCF10F0DB0697
:1000C000030EDBCF11F001E2DB061050111006E049
:1000D000040EE66EF6EC0EF0E552EED7DF2AD6D728
:1000E000816A010EDB6A080EF36E010EDBCFF4FFAE
:1000F000F350F45C29E2010EF36EDB5004E0D8907B
:10010000F336E806FCE1F350836EE80EF36E040E5E
:10011000F3CFDBFF030EF36E050EF3CFDBFF040E10
:10012000DBCF10F0DB06050EDBCF11F001E2DB06C2
:100130001050111006E0040EE66EF6EC0EF0E552DB
:10014000EED7010EDB2ACFD7836A010EDB6A020EDF
:10015000F36E010EDBCFF4FFF350F45C29E2010EE5
:10016000F36EDB5004E0D890F336E806FCE1F35080
:10017000806EE80EF36E060EF3CFDBFF030EF36E18
:10018000070EF3CFDBFF060EDBCF10F0DB06070E0A
:10019000DBCF11F001E2DB061050111006E0040E77
:1001A000E66EF6EC0EF0E552EED7010EDB2ACFD765
:1001B000806A080EE15C02E2E16AE552E16EE55216
:1001C000E7CFD9FF1200D9CFE6FFE1CFD9FFE65242
:1001D000DF6A090EDF5C01E323D3DF50080A01E187
:1001E000C7D20F0A01E16ED2010A01E115D2030A5A
:1001F00001E1BCD1010A01E163D1070A01E10AD1A1
:10020000010A01E1B1D0030A59E0010A01E006D375
:10021000DF50030DF3CFE9FFF4CFEAFF000EE9262C
:100220000D0EEA22020EE926000EEA22EF0412E188
:10023000DF50030DF3CFE9FFF4CFEAFF000EE9260C
:100240000D0EEA22020EE926000EEA22EF6A8190E4
:10025000819233D0DF50030DF3CFE9FFF4CFEAFFF3
:10026000000EE9260D0EEA22EE52EF040EE1DF50F9
:10027000030DF3CFE9FFF4CFEAFF000EE9260D0EE0
:10028000EA22EE52EF6A818218D0DF50030DF3CFDD
:10029000E9FFF4CFEAFF000EE9260D0EEA22EF0493
:1002A0000CE1DF50030DF3CFE9FFF4CFEAFF000EBE
:1002B000E9260D0EEA22EF6A8180B0D2DF50030DED
:1002C000F3CFE9FFF4CFEAFF000EE9260D0EEA2294
:1002D000020EE926000EEA22EF0412E1DF50030DC0
:1002E000F3CFE9FFF4CFEAFF000EE9260D0EEA2274
:1002F000020EE926000EEA22EF6A8194819633D03D
:10030000DF50030DF3CFE9FFF4CFEAFF000EE9263B
:100310000D0EEA22EE52EF040EE1DF50030DF3CF93
:10032000E9FFF4CFEAFF000EE9260D0EEA22EE52B5
:10033000EF6A818618D0DF50030DF3CFE9FFF4CFC9
:10034000EAFF000EE9260D0EEA22EF040CE1DF5071
:10035000030DF3CFE9FFF4CFEAFF000EE9260D0EFF
:10036000EA22EF6A81845AD2DF50030DF3CFE9FF0E
:10037000F4CFEAFF000EE9260D0EEA22020EE9266E
:10038000000EEA22EF0412E1DF50030DF3CFE9FF84
:10039000F4CFEAFF000EE9260D0EEA22020EE9264E
:1003A000000EEA22EF6A8198819A33D0DF50030D64
:1003B000F3CFE9FFF4CFEAFF000EE9260D0EEA22A3
:1003C000EE52EF040EE1DF50030DF3CFE9FFF4CF5F
:1003D000EAFF000EE9260D0EEA22EE52EF6A818A4C
:1003E00018D0DF50030DF3CFE9FFF4CFEAFF000E82
:1003F000E9260D0EEA22EF040CE1DF50030DF3CFE6
:10040000E9FFF4CFEAFF000EE9260D0EEA22EF6ABB
:10041000818804D2DF50030DF3CFE9FFF4CFEAFF68
:10042000000EE9260D0EEA22020EE926000EEA224F
:10043000EF0412E1DF50030DF3CFE9FFF4CFEAFF41
:10044000000EE9260D0EEA22020EE926000EEA222F
:10045000EF6A819C819E33D0DF50030DF3CFE9FF1B
:10046000F4CFEAFF000EE9260D0EEA22EE52EF0469
:100470000EE1DF50030DF3CFE9FFF4CFEAFF000EEA
:10048000E9260D0EEA22EE52EF6A818E18D0DF5077
:10049000030DF3CFE9FFF4CFEAFF000EE9260D0EBE
:1004A000EA22EF040CE1DF50030DF3CFE9FFF4CFB4
:1004B000EAFF000EE9260D0EEA22EF6A818CAED12A
:1004C000DF50030DF3CFE9FFF4CFEAFF000EE9267A
:1004D0000D0EEA22020EE926000EEA22EF0412E1D6
:1004E000DF50030DF3CFE9FFF4CFEAFF000EE9265A
:1004F0000D0EEA22020EE926000EEA22EF6A839030
:10050000839233D0DF50030DF3CFE9FFF4CFEAFF3E
:10051000000EE9260D0EEA22EE52EF040EE1DF5046
:10052000030DF3CFE9FFF4CFEAFF000EE9260D0E2D
:10053000EA22EE52EF6A838218D0DF50030DF3CF28
:10054000E9FFF4CFEAFF000EE9260D0EEA22EF04E0
:100550000CE1DF50030DF3CFE9FFF4CFEAFF000E0B
:10056000E9260D0EEA22EF6A838058D1DF50030D91
:10057000F3CFE9FFF4CFEAFF000EE9260D0EEA22E1
:10058000020EE926000EEA22EF0412E1DF50030D0D
:10059000F3CFE9FFF4CFEAFF000EE9260D0EEA22C1
:1005A000020EE926000EEA22EF6A8394839633D086
:1005B000DF50030DF3CFE9FFF4CFEAFF000EE92689
:1005C0000D0EEA22EE52EF040EE1DF50030DF3CFE1
:1005D000E9FFF4CFEAFF000EE9260D0EEA22EE5203
:1005E000EF6A838618D0DF50030DF3CFE9FFF4CF15
:1005F000EAFF000EE9260D0EEA22EF040CE1DF50BF
:10060000030DF3CFE9FFF4CFEAFF000EE9260D0E4C
:10061000EA22EF6A838402D1DF50030DF3CFE9FFB2
:10062000F4CFEAFF000EE9260D0EEA22020EE926BB
:10063000000EEA22EF0412E1DF50030DF3CFE9FFD1
:10064000F4CFEAFF000EE9260D0EEA22020EE9269B
:10065000000EEA22EF6A8398839A33D0DF50030DAD
:10066000F3CFE9FFF4CFEAFF000EE9260D0EEA22F0
:10067000EE52EF040EE1DF50030DF3CFE9FFF4CFAC
:10068000EAFF000EE9260D0EEA22EE52EF6A838A97
:1006900018D0DF50030DF3CFE9FFF4CFEAFF000ECF
:1006A000E9260D0EEA22EF040CE1DF50030DF3CF33
:1006B000E9FFF4CFEAFF000EE9260D0EEA22EF6A09
:1006C0008388ACD0DF50030DF3CFE9FFF4CFEAFF0E
:1006D000000EE9260D0EEA22020EE926000EEA229D
:1006E000EF0412E1DF50030DF3CFE9FFF4CFEAFF8F
:1006F000000EE9260D0EEA22020EE926000EEA227D
:10070000EF6A839C839E33D0DF50030DF3CFE9FF64
:10071000F4CFEAFF000EE9260D0EEA22EE52EF04B6
:100720000EE1DF50030DF3CFE9FFF4CFEAFF000E37
:10073000E9260D0EEA22EE52EF6A838E18D0DF50C2
:10074000030DF3CFE9FFF4CFEAFF000EE9260D0E0B
:10075000EA22EF040CE1DF50030DF3CFE9FFF4CF01
:10076000EAFF000EE9260D0EEA22EF6A838C56D0CE
:10077000DF50030DF3CFE9FFF4CFEAFF000EE926C7
:100780000D0EEA22020EE926000EEA22EF0412E123
:10079000DF50030DF3CFE9FFF4CFEAFF000EE926A7
:1007A0000D0EEA22020EE926000EEA22EF6A809080
:1007B000809233D0DF50030DF3CFE9FFF4CFEAFF8F
:1007C000000EE9260D0EEA22EE52EF040EE1DF5094
:1007D000030DF3CFE9FFF4CFEAFF000EE9260D0E7B
:1007E000EA22EE52EF6A808218D0DF50030DF3CF79
:1007F000E9FFF4CFEAFF000EE9260D0EEA22EF042E
:100800000CE1DF50030DF3CFE9FFF4CFEAFF000E58
:10081000E9260D0EEA22EF6A808000D0DF2AD9D4C3
:100820000D011B51E8B08086E8A08096E552E552A4
:10083000E7CFD9FF1200D9CFE6FFE1CFD9FF040EF1
:10084000E126FD0EDBCFE9FFFE0EDBCFEAFF010E56
:10085000EFCFDBFFE76EFD0EDBCFE9FFFE0EDBCF58
:10086000EAFFE750E926000EEA22020EEFCFDBFF97
:10087000030EDB6AFB0EDBCFE9FFFC0EDBCFEAFFEA
:10088000010EDBCFEFFFDB50830A54E0010A3AE0B0
:10089000030A1FE0010A01E051D0DF6A090EDF5CA4
:1008A00017E2020EDB50DF5C11E1DF50030DF3CFE6
:1008B000E9FFF4CFEAFF000EE9260D0EEA22020E50
:1008C000E926000EEA22010EEF6E02D0DF2AE6D7FB
:1008D00035D0DF6A090EDF5C14E2020EDB50DF5C0C
:1008E0000EE1DF50030DF3CFE9FFF4CFEAFF000E76
:1008F000E9260D0EEA22EE52010EEF6E02D0DF2A3B
:10090000E9D71CD0DF6A090EDF5C13E2020EDB5070
:10091000DF5C0DE1DF50030DF3CFE9FFF4CFEAFF19
:10092000000EE9260D0EEA22010EEF6E02D0DF2A3C
:10093000EAD704D0020EDBCF1BFD00D0030EDB5044
:10094000106E040EE15C03E200D0E16AE552E16E54
:0A0950001050E552E7CFD9FF120066
:06095A00DACFE4FFE2CF5A
:10096000DAFFE9CFE4FFEACFE4FFF6CFE4FFF7CF09
:10097000E4FFF5CFE4FFF3CFE4FFF4CFE4FFFACFD9
:10098000E4FF00EE00F0100EE80403E3EECFE4FF16
:10099000FBD700EE10F0090EE80403E3EECFE4FF0E
:1009A000FBD7E652D9CFE6FFE1CFD9FFE65264ECA0
:1009B0000EF0DF6E0B01BD51BD2BEA6AC00FE96E70
:1009C0000B0EEA22DFCFEFFF3C0EBD5D01E3BD6BF6
:1009D000BF2BA49AE552E552E7CFD9FFE55200EECE
:1009E00018F0090EE80403E3E5CFEDFFFBD700EEB6
:1009F0000FF0100EE80403E3E5CFEDFFFBD7E5CFE2
:100A0000FAFFE5CFF4FFE5CFF3FFE5CFF5FFE5CF44
:100A1000F7FFE5CFF6FFE5CFEAFFE5CFE9FFE5CF4A
:100A2000DAFF1100DACFE4FFE2CFDAFFE9CFE4FF2B
:100A3000EACFE4FFE652D9CFE6FFE1CFD9FFE65295
:100A40000B01025104E1ACA2FED7AC9A1BD00151BC
:100A5000EA6A030FE96E0B0EEA22EFCFDFFFDF50E9
:100A6000AD6E012B3C0E015D01E3016B000EE76EE4
:100A70000219E8AE02D0023503D0E750D880025503
:100A800001E20207E552E552E7CFD9FFE552E5CF93
:100A9000EAFFE5CFE9FFE5CFDAFF1100DACFE4FFA7
:100AA000E2CFDAFFE9CFE4FFEACFE4FFE652D9CFA5
:100AB000E6FFE1CFD9FFE6520B01805104E172A2BB
:100AC000FED7729A1BD07F51EA6A810FE96E0B0E36
:100AD000EA22EFCFDFFFDF50736E7F2B3C0E7F5D8E
:100AE00001E37F6B000EE76E8019E8AE02D080351F
:100AF00003D0E750D880805501E28007E552E552E7
:100B0000E7CFD9FFE552E5CFEAFFE5CFE9FFE5CF33
:100B1000DAFF1100D9CFE6FFE1CFD9FFE6527C0E14
:100B2000DF6ED950FB0FE96EFF0EDA20EA6EEE2A77
:100B3000000EEE22EE22EE22D950FB0FE96EFF0EE0
:100B4000DA20EA6E040EE76ED890EF36010EEB362F
:100B5000020EEB36030EEB36E706F6E1106A240EC2
:100B6000116EF40E126E136A10C004F011C005F07D
:100B700012C006F013C007F0FB0EDBCF09F0FC0E2D
:100B8000DBCF0AF0FD0EDBCF0BF0FE0EDBCF0CF05F
:100B900040EC0EF0FB0E04C0DBFFFC0E05C0DBFFDB
:100BA000FD0E06C0DBFFFE0E07C0DBFFFB0EDBCF3A
:100BB000E6FFFC0EDBCFE6FFDFCFE6FF07EC0EF033
:100BC000E552E552E552AC8AAC9E9D8A9F88E5527B
:100BD000E552E7CFD9FF1200D9CFE6FFE1CFD9FF29
:100BE000E6527C0EDF6ED950FB0FE96EFF0EDA2065
:100BF000EA6EEE2A000EEE22EE22EE22D950FB0F14
:100C0000E96EFF0EDA20EA6E040EE76ED890EF363A
:100C1000010EEB36020EEB36030EEB36E706F6E17D
:100C2000106A240E116EF40E126E136A10C004F0D6
:100C300011C005F012C006F013C007F0FB0EDBCFA9
:100C400009F0FC0EDBCF0AF0FD0EDBCF0BF0FE0E41
:100C5000DBCF0CF040EC0EF0FB0E04C0DBFFFC0E13
:100C600005C0DBFFFD0E06C0DBFFFE0E07C0DBFF8D
:100C7000FB0EDBCFE6FFFC0EDBCFE6FFDFCFE6FFB0
:100C8000CBEC0DF0E552E552E552D08E718E728AB2
:100C9000729EA38AA58AE552E552E7CFD9FF1200DA
:100CA000D9CFE6FFE1CFD9FFACA2FED70B010051AF
:100CB000002BEA6A030FE96E0B0EEA22FE0EDBCF71
:100CC000EFFF022B3C0E005D01E3006B010E00D034
:100CD000E552E7CFD9FF1200D9CFE6FFE1CFD9FF28
:100CE00072A2FED70B017E517E2BEA6A810FE96E5C
:100CF0000B0EEA22FE0EDBCFEFFF802B3C0E7E5D5B
:100D000001E37E6B010E00D0E552E7CFD9FF120060
:100D1000D9CFE6FFE1CFD9FF060EE126010EF36E33
:100D2000020EF3CFDBFF030EDB6A020EDBCF10F007
:100D3000DB06030EDBCF11F001E2DB0610501110D1
:100D400006E0040EE66EF6EC0EF0E552EED7000E6D
:100D50000B01E76E0219E8AE02D0023503D0E7506E
:100D6000D880025523E20151EA6A030FE96E0B0EA7
:100D7000EA22010EEFCFDBFFACA2FED7010EDB5063
:100D8000AD6EACA2FED70B01012B3C0E015D01E361
:100D9000016B000EE76E0219E8AE02D0023503D0F7
:100DA000E750D880025501E20207D1D7010EF36E59
:100DB000040EF3CFDBFF050EDB6A040EDBCF10F071
:100DC000DB06050EDBCF11F001E2DB06105011103F
:100DD00006E0040EE66EF6EC0EF0E552EED7106E6D
:100DE000060EE15C02E2E16AE552E16E1050E55266
:100DF000E7CFD9FF1200D9CFE6FFE1CFD9FF060E2A
:100E0000E126010EF36E020EF3CFDBFF030EDB6A69
:100E1000020EDBCF10F0DB06030EDBCF11F001E298
:100E2000DB061050111006E0040EE66EF6EC0EF034
:100E3000E552EED7000E0B01E76E8019E8AE02D046
:100E4000803503D0E750D880805523E27F51EA6A8D
:100E5000810FE96E0B0EEA22010EEFCFDBFF72A2CB
:100E6000FED7010EDB50736E72A2FED70B017F2BF3
:100E70003C0E7F5D01E37F6B000EE76E8019E8AEEC
:100E800002D0803503D0E750D880805501E280073A
:100E9000D1D7010EF36E040EF3CFDBFF050EDB6A34
:100EA000040EDBCF10F0DB06050EDBCF11F001E204
:100EB000DB061050111006E0040EE66EF6EC0EF0A4
:100EC000E552EED7106E060EE15C02E2E16AE552F1
:100ED000E16E1050E552E7CFD9FF1200D9CFE6FFFF
:100EE000E1CFD9FFE652DF6AA39A000E0B01E76E4D
:100EF000BF19E8AE02D0BF3503D0E750D880BF5548
:100F000002E2010EDF6EA38ADF5000D0E552E55207
:100F1000E7CFD9FF1200D9CFE6FFE1CFD9FFE652E4
:100F2000DF6A9D9A000E0B01E76E4119E8AE02D010
:100F3000413503D0E750D880415502E2010EDF6E03
:100F40009D8ADF5000D0E552E552E7CFD9FF12006D
:100F5000D9CFE6FFE1CFD9FFE6529D9A0B01405170
:100F6000402BEA6A420FE96E0B0EEA22EFCFDFFF59
:100F70003C0E405D01E3406B000EE76E4119E8AEA8
:100F800002D0413503D0E750D880415501E24107F6
:100F90009D8ADF5000D0E552E552E7CFD9FF12001D
:100FA000D9CFE6FFE1CFD9FFE652A39A0B01BE519C
:100FB000BE2BEA6AC00FE96E0B0EEA22EFCFDFFF0D
:100FC0003C0EBE5D01E3BE6B000EE76EBF19E8AEDE
:100FD00002D0BF3503D0E750D880BF5501E2BF072C
:100FE0009D8ADF5000D0E552E552E7CFD9FF1200CD
:100FF000D9CFE6FFE1CFD9FFFE0EDBCF01F9FD0E21
:10100000DBCF02F9FC0EDBCF03F9FB0EDBCF04F9DB
:10101000F90EDBCF81F9FA0EDBCF82F904D8E55265
:10102000E7CFD9FF1200D9CFE6FFE1CFD9FFE652D3
:10103000240EE66EF40EE66EE66AE66A8AEC05F0C9
:10104000E552E552E552E55209017D6B7E6B010EDA
:10105000006F7F6B050E806F87C983F988C984F99B
:1010600089C985F98AC986F900C98BF9DF6A1A0E20
:10107000DF5C08E2410EDF24E66E50EC06F0E5523C
:10108000DF2AF5D788EC06F0E552E552E7CFD9FF25
:10109000120009017D6B7E6B010E006F7F6B050EE8
:1010A000806F87C983F988C984F989C985F98AC994
:1010B00086F900C98BF91200D9CFE6FFE1CFD9FF3D
:1010C000060EE126DF6A83EC0BF004C087F905C049
:1010D00088F906C089F907C08AF9ABA207D0AB9896
:1010E000040EE66E31EC0FF0E552AB88830EE96E2C
:1010F000090EEA6EEE500901871909E1EE508819D0
:1011000006E1EE50891903E1EE508A1900E113E07F
:1011100000518B5D08E1020E005D05E18007805102
:1011200002E181DFBDD087C983F988C984F989C903
:1011300085F98AC986F90051030A01E1ACD0010A98
:1011400016E0030A02E0A5DFA9D08BEC07F0000946
:1011500001E1A6D0A8EC07F0DF6E09010151DF5CC8
:1011600005E17D6B020E006F050E806F97D08BEC52
:1011700007F0000901E194D0A8EC07F0DF6E090147
:101180000251DF5C73E1020EDB6A030EDB68D950AB
:10119000030FE66E000EDA20E66E8CD8E552E552BB
:1011A000E76E020EE7CFDBFFDB50020A53E0030AD3
:1011B00005E0010A01E056D06CDF72D009018151CF
:1011C000821146E0D950040FE66E000EDA20E66E7A
:1011D0007F0EE66E090EE66E070EE66E090EE66EEF
:1011E00005D082C9FAFF09018151F96EFADF106E4C
:1011F000060EE15E105009017E6F41697E2B7FC9AA
:1012000042F97E2BDE52020EDD6E7E51F36E010E30
:10121000DBCFF4FFF350F45C1AE2040EDBCFE9FFFE
:10122000050EDBCFEAFFEF50E66E010EDB50EA6AF7
:10123000410FE96E090EEA22E552E750EF6E040E07
:10124000DB2A050E01E3DB2A010EDB2ADED701D003
:1012500020DF08D00901FA0E416F7E2B7FC942F9C9
:101260007E2B00D00901030E006F14D07D517D2B21
:10127000EA6A050FE96E090EEA22DFCFEFFF3C0EA6
:101280007D5D08E3FA0E416F7E2B900E426F7E2B40
:10129000030E006F03D05AD8FCDE00D000C98BF9D2
:1012A000060EE15C02E2E16AE552E16EE552E7CF4B
:1012B000D9FF1200D9CFE6FFE1CFD9FF020EE12618
:1012C00009017D05EA6A050FE96E090EEA22EFCFF2
:1012D000DFFF010EDB6AFA0E055D05E0FF0E055D1E
:1012E00002E0000E27D07D05E66E050EE66E090EC3
:1012F000E66E9AD8E552E552E552E76E010EE7CF69
:10130000DBFFDB50DF5C0CE109017D077D51EA6A00
:10131000050FE96E090EEA22EF6A010E0BD00AD022
:10132000FD0EDBCFE9FFFE0EDBCFEAFF910EEF6E85
:10133000000E00D0106E020EE15C02E2E16AE5529E
:10134000E16E1050E552E7CFD9FF1200D9CFE6FF8A
:10135000E1CFD9FF020EE126DF6A010EDB6A7EC90A
:10136000E6FF410EE66E090EE66E5ED8E552E552E6
:10137000E552DF6E03C9E6FF50EC06F0E552010EC0
:10138000DB6A09017E51F36E010EDBCFF4FFF350EF
:10139000F45C0FE2010EDB50EA6A410FE96E090EC0
:1013A000EA22EF50E66E50EC06F0E552010EDB2A21
:1013B000E8D7DFCFE6FF50EC06F0E55204C9E6FFC0
:1013C00050EC06F0E55288EC06F0020EE15C02E219
:1013D000E16AE552E16EE552E7CFD9FF1200D9CFBD
:1013E000E6FFE1CFD9FFFD0EDBCFF6FFFE0EDBCF30
:1013F000F7FF0800F55012E0FD0EDBCFF6FFFE0E02
:10140000DBCFF7FF0800F550E66E50EC06F0E55232
:10141000FD0EDB2AFE0E01E3DB2AE5D788EC06F0A1
:10142000E552E7CFD9FF1200D9CFE6FFE1CFD9FFD0
:10143000030EE126DF6A010EDB6AFC0EDB50F36E61
:10144000010EDBCFF4FFF350F45C12E2010EDB502F
:10145000E76EFD0EDBCFE9FFFE0EDBCFEAFFE750C4
:10146000E926000EEA22EF50DF1A010EDB2AE5D74B
:10147000DF50106E030EE15C03E200D0E16AE5523A
:0C148000E16E1050E552E7CFD9FF1200DA
:04148C00DACFE4FFD0
:10149000E2CFDAFFE9CFE4FFEACFE4FFF6CFE4FFE3
:1014A000F7CFE4FFF5CFE4FFF3CFE4FFF4CFE4FFA1
:1014B000FACFE4FF00EE00F0100EE80403E3EECFF5
:1014C000E4FFFBD700EE10F0090EE80403E3EECFD3
:1014D000E4FFFBD7E652F2940F010C2B000E0D2314
:1014E0000E230F23162B1723142B15230251031140
:1014F00007E005D003CFFAFF0F010251F96EFADFC2
:1015000000CFE6FF01CFE6FFBEEC0EF0E552E5525C
:10151000E55200EE18F0090EE80403E3E5CFEDFF15
:10152000FBD700EE0FF0100EE80403E3E5CFEDFF6C
:10153000FBD7E5CFFAFFE5CFF4FFE5CFF3FFE5CF2B
:10154000F5FFE5CFF7FFE5CFF6FFE5CFEAFFE5CF03
:10155000E9FFE5CFDAFF1100DACFE4FFE2CFDAFFEF
:10156000E9CFE4FFEACFE4FFF6CFE4FFF7CFE4FFF3
:10157000F5CFE4FFF3CFE4FFF4CFE4FFFACFE4FFCD
:1015800000EE00F0100EE80403E3EECFE4FFFBD71B
:1015900000EE10F0090EE80403E3EECFE4FFFBD702
:1015A000E6529E9004CFE6FF05CFE6FFA2EC0EF0D8
:1015B000E552E5520F010651071107E005D007CFAC
:1015C000FAFF0F010651F96EFADFE55200EE18F04E
:1015D000090EE80403E3E5CFEDFFFBD700EE0FF0C3
:1015E000100EE80403E3E5CFEDFFFBD7E5CFFAFFEC
:1015F000E5CFF4FFE5CFF3FFE5CFF5FFE5CFF7FF4C
:10160000E5CFF6FFE5CFEAFFE5CFE9FFE5CFDAFF6B
:101610001100DACFE4FFE2CFDAFFE9CFE4FFEACF4F
:10162000E4FFF6CFE4FFF7CFE4FFF5CFE4FFF3CF1D
:10163000E4FFF4CFE4FFFACFE4FF00EE00F0100E79
:10164000E80403E3EECFE4FFFBD700EE10F0090E51
:10165000E80403E3EECFE4FFFBD7E6529E9208CF07
:10166000BBFF0F010A510B1107E005D00BCFFAFFAA
:101670000F010A51F96EFADFE55200EE18F0090E7B
:10168000E80403E3E5CFEDFFFBD700EE0FF0100E0B
:10169000E80403E3E5CFEDFFFBD7E5CFFAFFE5CFA5
:1016A000F4FFE5CFF3FFE5CFF5FFE5CFF7FFE5CF9B
:1016B000F6FFE5CFEAFFE5CFE9FFE5CFDAFF11005E
:1016C000D9CFE6FFE1CFD9FF9F0EE66EDAEC0EF040
:1016D000E552FD0EDBCF00FFFE0EDBCF01FFFB0E60
:1016E000DBCF02FFFC0EDBCF03FFFD0EDBCFE6FFFF
:1016F000FE0EDBCFE6FFBEEC0EF0E552E552E55202
:10170000E7CFD9FF1200D9CFE6FFE1CFD9FF040E12
:10171000E126F29A1CCFDFFF010E1DCFDBFF020E88
:101720001ECFDBFF030E1FCFDBFFF28ADECF04F0FC
:10173000DECF05F0DECF06F0DDCF07F0DD52DD5263
:10174000040EE15C03E200D0E16AE552E16EE5528D
:10175000E7CFD9FF1200D9CFE6FFE1CFD9FF020EC4
:10176000E126830EDF6EDE520C0EDD6ECC6ACC9E5F
:10177000070ECD6EFD0EDBCFE6FFFE0EDBCFE6FFE4
:10178000A2EC0EF0E552E5529F809D80FD0EDBCF6E
:1017900004FFFE0EDBCF05FFFB0EDBCF06FFFC0ECA
:1017A000DBCF07FF020EE15C02E2E16AE552E16E87
:1017B000E552E7CFD9FF1200D9CFE6FFE1CFD9FF3D
:1017C0000F0EBA6E9F829D82FE0EDB50BB6EFE0E28
:1017D000DB500F01086F096BFC0EDBCF0AFFFD0E1B
:0C17E000DBCF0BFFE552E7CFD9FF120072
:0417EC00D9CFE6FF6C
:1017F000E1CFD9FF080EE126DE6A240EDE6EF40E7C
:10180000DE6EDD6ADD52DD52DECF05F0DECF06F0A2
:10181000DECF07F0DDCF08F0DD52DD52055007E1E5
:10182000240E061804E1F40E071801E1085010E038
:10183000055008E1900E061805E1D00E071802E1E8
:10184000030E081801E000D0700ED36E9B8C04D0FC
:10185000700ED36E9B9C00D0D9CFE9FFDACFEAFFA0
:10186000EECF04F0EECF05F0EECF06F0EFCF07F0AD
:10187000040E096E0A6A0B6A0C6A40EC0EF0040E44
:1018800004C0DBFF050E05C0DBFF060E06C0DBFF54
:10189000070E07C0DBFFD950040FE96EDACFEAFF6D
:1018A000E80E096E030E0A6E0B6A0C6AEECF04F0A6
:1018B000EECF05F0EECF06F0EFCF07F040EC0EF0E4
:1018C00007C0EDFF06C0EDFF05C0EDFF04C0EFFF50
:1018D00013681468156A040EDBCF16F0050EDBCF13
:1018E00017F0186A1650135C106E17501458116ECA
:1018F00018501558126E10C02CFF11C02DFFC26A6F
:101900000F01386B396B3A6B3B6B3C6B9690939045
:1019100093949398939C959095949598959C929078
:10192000819081948198819C839083948398839CF7
:10193000809093929396939A939E95929596959A6A
:10194000959E929281928196819A819E83928396AE
:10195000839A839E809292968096949C948EF19E18
:10196000080EE15C02E2E16AE552E16EE552E7CF82
:04197000D9FF120089
:0C197400DACFE4FFE2CFDAFFE9CFE4FFB6
:10198000EACFE4FFF6CFE4FFF7CFE4FFF5CFE4FFC3
:10199000F3CFE4FFF4CFE4FFFACFE4FF00EE00F072
:1019A000100EE80403E3EECFE4FFFBD700EE10F0E7
:1019B000090EE80403E3EECFE4FFFBD7E652D9CFEC
:1019C000E6FFE1CFD9FFE65283EC0EF0DF6E0B01AC
:1019D0003F513F2BEA6A420FE96E0B0EEA22DFCF3E
:1019E000EFFF3C0E3F5D01E33F6B412B9E9AE552BA
:1019F000E552E7CFD9FFE55200EE18F0090EE804F2
:101A000003E3E5CFEDFFFBD700EE0FF0100EE80487
:101A100003E3E5CFEDFFFBD7E5CFFAFFE5CFF4FF1A
:101A2000E5CFF3FFE5CFF5FFE5CFF7FFE5CFF6FF15
:0E1A3000E5CFEAFFE5CFE9FFE5CFDAFF1100D1
:021A3E00D9CFFE
:101A4000E6FFE1CFD9FF050EE126F6EC0BF0000E24
:101A5000E66EE66A2CCFE6FF2DCFE6FF60EC0BF0DA
:101A6000E552E552E552E552360EE66E080EE66E98
:101A7000DD0EE66ECC0EE66EBB0EE66EAA0EE66ED0
:101A8000F8EC07F0106E060EE15E105011EC00F05D
:101A9000F40EDE6E010EDE6EDE6ADD6ADD52DD52B0
:101AA000D9CFE9FFDACFEAFFEE500F010C5DEE501F
:101AB0000D59EE500E59EE500F5906E30C6B0D6B9D
:101AC0000E6B0F6B27EC0FF00F01050E165D000E6D
:101AD000175905E3E3EC00F00F01166B176B5CEC94
:101AE00008F0DED7050EE15C02E2E16AE552E16E44
:081AF000E552E7CFD9FF120017
:081AF800280EF66E000EF76ED9
:101B0000000EF86E0F010900F550256F0900F55021
:101B1000266F03E1256701D03DD00900F550206F05
:101B20000900F550216F0900F550226F09000900E6
:101B3000F550E96E0900F550EA6E09000900090048
:101B4000F550236F0900F550246F09000900F6CF06
:101B500027FFF7CF28FFF8CF29FF20CFF6FF21CFAF
:101B6000F7FF22CFF8FF0F01235302E1245307E0D0
:101B70000900F550EE6E2307F8E22407F9D727CFC6
:101B8000F6FF28CFF7FF29CFF8FF0F012507000E3A
:061B9000265BBFD7120026
:0A1B9600D9CFE6FFDACFE6FFE1CF7A
:101BA000D9FFE2CFDAFF726A716AFD0EDBB072888C
:101BB000DBA202D0728C718CDBB4728EDBA602D0F9
:101BC000718801D0718ADBA802D0728401D072942E
:101BD000DBBA7186DBAC02D0A38A01D0A39ADBAE5C
:101BE00002D0A38801D0A398FB0EDB50756EFC0ECB
:101BF000DBCF11F011C010F0116A1050766E728AAE
:0E1C0000718EE552E5CFDAFFE7CFD9FF120073
:021C0E00D9CF2C
:101C1000E6FFDACFE6FFE1CFD9FFE2CFDAFFAC6A29
:101C2000AB6AFD0EDBB0AC88DBA202D0AC8CAB8C17
:101C3000DBB4AC8EDBA602D0AB8801D0AB8ADBB8BC
:101C4000AC84DBBAAB86DBAC02D09D8A01D09D9A16
:101C5000DBAE02D09D8801D09D98FB0EDB50AF6EAD
:101C6000FC0EDBCF11F011C010F0116A1050B06EF5
:101C7000AC8AAB8EE552E5CFDAFFE7CFD9FF120091
:101C8000036A026A016A006A200EE76ED890043681
:101C90000536063607360036013602360336095059
:101CA000005C0A5001580B5002580C50035809E3CD
:101CB0000950005E0A50015A0B50025A0C50035A48
:081CC000042AE72EE4D712000C
:081CC800D9CFE6FFDACFE6FFF9
:101CD000E1CFD9FFE2CFDAFFE652F20E0F012E1765
:101CE00071AC03D02E9171B02E8171B42E8571B27A
:101CF0002E877450DF6EDF50E552E552E5CFDAFFF4
:061D0000E7CFD9FF12003D
:0A1D0600D9CFE6FFDACFE6FFE1CF08
:101D1000D9FFE2CFDAFFE652F20E0F012F17ABAC7C
:101D200003D02F91ABB02F81ABB42F85ABB22F87EF
:101D3000AE50DF6EDF50E552E552E5CFDAFFE7CF78
:041D4000D9FF1200B5
:0C1D4400D9CFE6FFDACFE6FFE1CFD9FFF0
:101D5000E2CFDAFFE652E652FC0EDBCFDEFFDBCF4E
:101D6000DDFF010EDB50CF6EDF50CE6EE552E55247
:0C1D7000E552E5CFDAFFE7CFD9FF120003
:041D7C00D9CFE6FFD6
:101D8000DACFE6FFE1CFD9FFE2CFDAFFE652E65243
:101D9000FC0EDBCFDEFFDBCFDDFF010EDB50D76EAD
:101DA000DF50D66EE552E552E552E5CFDAFFE7CFD8
:041DB000D9FF120045
:0C1DB400D9CFE6FFDACFE6FFE1CFD9FF80
:101DC000E2CFDAFFFD0EDB507F0BD56ED76AD66A05
:101DD000F294FD0EDBAE02D0F28A01D0F29AD58EDB
:0C1DE000E552E5CFDAFFE7CFD9FF120093
:041DEC00FF0EE350B3
:101DF000196E480E01D04C0EE76EE72EFED7E76A4B
:0C1E0000E72EFED7192EF7D700001200C5
:041E0C00380EF36E2B
:101E100000EE00F00F0E01D81200EA6002D0EE6A68
:0C1E2000FCD7F350E9601200EE6AFCD71A
:041E2C0010EE60F064
:101E300020EE60F0F86A0F9C7CEC0DF003EC00F0F3
:081E40001FEC0DF0FBD71200AE
:081E48000F01316B12000F01C4
:101E5000310503E1316B849003D0010E316F848032
:021E600012006E
:0E1E6200FF0EE350E84E1200000000D000D04A
:081E700000D0E82EFAD71200A1
:081E7800000000000000000062
:101E80000000000000000000000000000000000052
:101E90000000000000000000000000000000000042
:101EA0000000000000000000000000000000000032
:101EB0000000000000000000000000000000000022
:101EC0000000000000000000000000000000000012
:101ED0000000000000000000000000000000000002
:101EE00000000000000000000000000000000000F2
:061EF000000000000000EC
:0A1EF60000000000000000000000E2
:101F000000000000000000000000000000000000D1
:101F100000000000000000000000000000000000C1
:101F200000000000000000000000000000000000B1
:101F300000000000000000000000000000000000A1
:101F40000000000000000000000000000000000091
:101F50000000000000000000000000000000000081
:101F60000000000000000000000000000000000071
:101F70000000000000000000000000000000000061
:021F800000005F
:0E1F8200000000000000000000000000000051
:0E1F9000000000000000000000000000000043
:021F9E00000041
:101FA0000000000000000000000000000000000031
:0E1FB0000000000000000000C800000000005B
:011FBE000022
:011FBF00FF22
:011FC000FF21
:021FC10000001E
:020000040030CA
:0100010008F6
:0100020001FC
:0100030024D8
:01000500BD3D
:010006008079
:010008000FE8
:01000900C036
:01000A000FE6
:01000B00E014
:01000C000FE4
:01000D0040B2
:00000001FF
