:020000040000FA
:0600000058EF0FF01200A2
:020006001200E6
:08000800F2A402D084EF0AF01B
:100010009EA202D047EF0BF09EAA02D059EF0DF03E
:080020001200D08EF28E1200D6
:080028000800A2200000340FC3
:10003000000002000000A0200000320F00000200BB
:1000400000009F200000720D0000010000007F20D2
:100050000000510D00002000000057200000000F9C
:10006000000028000000CB1F0000000900008C00E9
:1000700000007A1F0000000D000051000000FC1E6F
:0A0080000000000B00007E000000ED
:06008A00DACFE4FFE2CF33
:10009000DAFFE9CFE4FFEACFE4FFF6CFE4FFF7CFE2
:1000A000E4FFF5CFE4FFF3CFE4FFF4CFE4FFFACFB2
:1000B000E4FF00EE00F0100EE80403E3EECFE4FFEF
:1000C000FBD700EE10F0090EE80403E3EECFE4FFE7
:1000D000FBD7E652D9CFE6FFE1CFD9FFE652A6EC37
:1000E0000EF0DF6E0B01BD51BD2BEA6AC00FE96E49
:1000F0000B0EEA22DFCFEFFF3C0EBD5D01E3BD6BCF
:10010000BF2BA49AE552E552E7CFD9FFE55200EEA6
:1001100018F0090EE80403E3E5CFEDFFFBD700EE8E
:100120000FF0100EE80403E3E5CFEDFFFBD7E5CFBA
:10013000FAFFE5CFF4FFE5CFF3FFE5CFF5FFE5CF1D
:10014000F7FFE5CFF6FFE5CFEAFFE5CFE9FFE5CF23
:10015000DAFF1100DACFE4FFE2CFDAFFE9CFE4FF04
:10016000EACFE4FFE652D9CFE6FFE1CFD9FFE6526E
:100170000B01025104E1ACA2FED7AC9A1BD0015195
:10018000EA6A030FE96E0B0EEA22EFCFDFFFDF50C2
:10019000AD6E012B3C0E015D01E3016B000EE76EBD
:1001A0000219E8AE02D0023503D0E750D8800255DC
:1001B00001E20207E552E552E7CFD9FFE552E5CF6C
:1001C000EAFFE5CFE9FFE5CFDAFF1100DACFE4FF80
:1001D000E2CFDAFFE9CFE4FFEACFE4FFE652D9CF7E
:1001E000E6FFE1CFD9FFE6520B01805104E172A294
:1001F000FED7729A1BD07F51EA6A810FE96E0B0E0F
:10020000EA22EFCFDFFFDF50736E7F2B3C0E7F5D66
:1002100001E37F6B000EE76E8019E8AE02D08035F7
:1002200003D0E750D880805501E28007E552E552BF
:10023000E7CFD9FFE552E5CFEAFFE5CFE9FFE5CF0C
:10024000DAFF1100D9CFE6FFE1CFD9FFE6527C0EED
:10025000DF6ED950FB0FE96EFF0EDA20EA6EEE2A50
:10026000000EEE22EE22EE22D950FB0FE96EFF0EB9
:10027000DA20EA6E040EE76ED890EF36010EEB3608
:10028000020EEB36030EEB36E706F6E1106A240E9B
:10029000116EF40E126E136A10C004F011C005F056
:1002A00012C006F013C007F0FB0EDBCF09F0FC0E06
:1002B000DBCF0AF0FD0EDBCF0BF0FE0EDBCF0CF038
:1002C00082EC0EF0FB0E04C0DBFFFC0E05C0DBFF72
:1002D000FD0E06C0DBFFFE0E07C0DBFFFB0EDBCF13
:1002E000E6FFFC0EDBCFE6FFDFCFE6FF49EC0EF0CA
:1002F000E552E552E552AC8AAC9E9D8A9F88E55254
:10030000E552E7CFD9FF1200D9CFE6FFE1CFD9FF01
:10031000E6527C0EDF6ED950FB0FE96EFF0EDA203D
:10032000EA6EEE2A000EEE22EE22EE22D950FB0FEC
:10033000E96EFF0EDA20EA6E040EE76ED890EF3613
:10034000010EEB36020EEB36030EEB36E706F6E156
:10035000106A240E116EF40E126E136A10C004F0AF
:1003600011C005F012C006F013C007F0FB0EDBCF82
:1003700009F0FC0EDBCF0AF0FD0EDBCF0BF0FE0E1A
:10038000DBCF0CF082EC0EF0FB0E04C0DBFFFC0EAA
:1003900005C0DBFFFD0E06C0DBFFFE0E07C0DBFF66
:1003A000FB0EDBCFE6FFFC0EDBCFE6FFDFCFE6FF89
:1003B0000DEC0EF0E552E552E552D08E718E728A48
:1003C000729EA38AA58AE552E552E7CFD9FF1200B3
:1003D000D9CFE6FFE1CFD9FFACA2FED70B01005188
:1003E000002BEA6A030FE96E0B0EEA22FE0EDBCF4A
:1003F000EFFF022B3C0E005D01E3006B010E00D00D
:10040000E552E7CFD9FF1200D9CFE6FFE1CFD9FF00
:1004100072A2FED70B017E517E2BEA6A810FE96E34
:100420000B0EEA22FE0EDBCFEFFF802B3C0E7E5D33
:1004300001E37E6B010E00D0E552E7CFD9FF120039
:10044000D9CFE6FFE1CFD9FF060EE126010EF36E0C
:10045000020EF3CFDBFF030EDB6A020EDBCF10F0E0
:10046000DB06030EDBCF11F001E2DB0610501110AA
:1004700006E0040EE66E38EC0FF0E552EED7000E03
:100480000B01E76E0219E8AE02D0023503D0E75047
:10049000D880025523E20151EA6A030FE96E0B0E80
:1004A000EA22010EEFCFDBFFACA2FED7010EDB503C
:1004B000AD6EACA2FED70B01012B3C0E015D01E33A
:1004C000016B000EE76E0219E8AE02D0023503D0D0
:1004D000E750D880025501E20207D1D7010EF36E32
:1004E000040EF3CFDBFF050EDB6A040EDBCF10F04A
:1004F000DB06050EDBCF11F001E2DB061050111018
:1005000006E0040EE66E38EC0FF0E552EED7106E02
:10051000060EE15C02E2E16AE552E16E1050E5523E
:10052000E7CFD9FF1200D9CFE6FFE1CFD9FF060E02
:10053000E126010EF36E020EF3CFDBFF030EDB6A42
:10054000020EDBCF10F0DB06030EDBCF11F001E271
:10055000DB061050111006E0040EE66E38EC0FF0CA
:10056000E552EED7000E0B01E76E8019E8AE02D01F
:10057000803503D0E750D880805523E27F51EA6A66
:10058000810FE96E0B0EEA22010EEFCFDBFF72A2A4
:10059000FED7010EDB50736E72A2FED70B017F2BCC
:1005A0003C0E7F5D01E37F6B000EE76E8019E8AEC5
:1005B00002D0803503D0E750D880805501E2800713
:1005C000D1D7010EF36E040EF3CFDBFF050EDB6A0D
:1005D000040EDBCF10F0DB06050EDBCF11F001E2DD
:1005E000DB061050111006E0040EE66E38EC0FF03A
:1005F000E552EED7106E060EE15C02E2E16AE552CA
:10060000E16E1050E552E7CFD9FF1200D9CFE6FFD7
:10061000E1CFD9FFE652DF6AA39A000E0B01E76E25
:10062000BF19E8AE02D0BF3503D0E750D880BF5520
:1006300002E2010EDF6EA38ADF5000D0E552E552E0
:10064000E7CFD9FF1200D9CFE6FFE1CFD9FFE652BD
:10065000DF6A9D9A000E0B01E76E4119E8AE02D0E9
:10066000413503D0E750D880415502E2010EDF6EDC
:100670009D8ADF5000D0E552E552E7CFD9FF120046
:10068000D9CFE6FFE1CFD9FFE6529D9A0B01405149
:10069000402BEA6A420FE96E0B0EEA22EFCFDFFF32
:1006A0003C0E405D01E3406B000EE76E4119E8AE81
:1006B00002D0413503D0E750D880415501E24107CF
:1006C0009D8ADF5000D0E552E552E7CFD9FF1200F6
:1006D000D9CFE6FFE1CFD9FFE652A39A0B01BE5175
:1006E000BE2BEA6AC00FE96E0B0EEA22EFCFDFFFE6
:1006F0003C0EBE5D01E3BE6B000EE76EBF19E8AEB7
:1007000002D0BF3503D0E750D880BF5501E2BF0704
:100710009D8ADF5000D0E552E552E7CFD9FF1200A5
:10072000D9CFE6FFE1CFD9FFFE0EDBCF01F9FD0EF9
:10073000DBCF02F9FC0EDBCF03F9FB0EDBCF04F9B4
:10074000F90EDBCF81F9FA0EDBCF82F904D8E5523E
:10075000E7CFD9FF1200D9CFE6FFE1CFD9FFE652AC
:10076000B00EE66EFE0EE66EE66AE66A22EC01F078
:10077000E552E552E552E55209017D6B7E6B010EB3
:10078000006F7F6B050E806F87C983F988C984F974
:1007900089C985F98AC986F900C98BF9DF6A1A0EF9
:1007A000DF5C08E2410EDF24E66EE8EC01F0E55282
:1007B000DF2AF5D720EC02F0E552E552E7CFD9FF6A
:1007C000120009017D6B7E6B010E006F7F6B050EC1
:1007D000806F87C983F988C984F989C985F98AC96D
:1007E00086F900C98BF91200D9CFE6FFE1CFD9FF16
:1007F000060EE126DF6AC1EC0BF004C087F905C0E4
:1008000088F906C089F907C08AF9ABA207D0AB986E
:10081000040EE66E73EC0FF0E552AB88830EE96EC2
:10082000090EEA6EEE500901871909E1EE508819A8
:1008300006E1EE50891903E1EE508A1900E113E058
:1008400000518B5D08E1020E005D05E180078051DB
:1008500002E181DFBDD087C983F988C984F989C9DC
:1008600085F98AC986F90051030A01E1ACD0010A71
:1008700016E0030A02E0A5DFA9D023EC03F000098B
:1008800001E1A6D040EC03F0DF6E09010151DF5C0D
:1008900005E17D6B020E006F050E806F97D023EC93
:1008A00003F0000901E194D040EC03F0DF6E090190
:1008B0000251DF5C73E1020EDB6A030EDB68D95084
:1008C000030FE66E000EDA20E66E8CD8E552E55294
:1008D000E76E020EE7CFDBFFDB50020A53E0030AAC
:1008E00005E0010A01E056D06CDF72D009018151A8
:1008F000821146E0D950040FE66E000EDA20E66E53
:100900007F0EE66E090EE66E070EE66E090EE66EC7
:1009100005D082C9FAFF09018151F96EFADF106E24
:10092000060EE15E105009017E6F41697E2B7FC982
:1009300042F97E2BDE52020EDD6E7E51F36E010E09
:10094000DBCFF4FFF350F45C1AE2040EDBCFE9FFD7
:10095000050EDBCFEAFFEF50E66E010EDB50EA6AD0
:10096000410FE96E090EEA22E552E750EF6E040EE0
:10097000DB2A050E01E3DB2A010EDB2ADED701D0DC
:1009800020DF08D00901FA0E416F7E2B7FC942F9A2
:100990007E2B00D00901030E006F14D07D517D2BFA
:1009A000EA6A050FE96E090EEA22DFCFEFFF3C0E7F
:1009B0007D5D08E3FA0E416F7E2B900E426F7E2B19
:1009C000030E006F03D05AD8FCDE00D000C98BF9AB
:1009D000060EE15C02E2E16AE552E16EE552E7CF24
:1009E000D9FF1200D9CFE6FFE1CFD9FF020EE126F1
:1009F00009017D05EA6A050FE96E090EEA22EFCFCB
:100A0000DFFF010EDB6AFA0E055D05E0FF0E055DF6
:100A100002E0000E27D07D05E66E050EE66E090E9B
:100A2000E66E9AD8E552E552E552E76E010EE7CF41
:100A3000DBFFDB50DF5C0CE109017D077D51EA6AD9
:100A4000050FE96E090EEA22EF6A010E0BD00AD0FB
:100A5000FD0EDBCFE9FFFE0EDBCFEAFF910EEF6E5E
:100A6000000E00D0106E020EE15C02E2E16AE55277
:100A7000E16E1050E552E7CFD9FF1200D9CFE6FF63
:100A8000E1CFD9FF020EE126DF6A010EDB6A7EC9E3
:100A9000E6FF410EE66E090EE66E5ED8E552E552BF
:100AA000E552DF6E03C9E6FFE8EC01F0E552010E06
:100AB000DB6A09017E51F36E010EDBCFF4FFF350C8
:100AC000F45C0FE2010EDB50EA6A410FE96E090E99
:100AD000EA22EF50E66EE8EC01F0E552010EDB2A67
:100AE000E8D7DFCFE6FFE8EC01F0E55204C9E6FF06
:100AF000E8EC01F0E55220EC02F0020EE15C02E2CB
:100B0000E16AE552E16EE552E7CFD9FF1200D9CF95
:100B1000E6FFE1CFD9FFFD0EDBCFF6FFFE0EDBCF08
:100B2000F7FF0800F55012E0FD0EDBCFF6FFFE0EDA
:100B3000DBCFF7FF0800F550E66EE8EC01F0E55278
:100B4000FD0EDB2AFE0E01E3DB2AE5D720EC02F0E6
:100B5000E552E7CFD9FF1200D9CFE6FFE1CFD9FFA9
:100B6000030EE126DF6A010EDB6AFC0EDB50F36E3A
:100B7000010EDBCFF4FFF350F45C12E2010EDB5008
:100B8000E76EFD0EDBCFE9FFFE0EDBCFEAFFE7509D
:100B9000E926000EEA22EF50DF1A010EDB2AE5D724
:100BA000DF50106E030EE15C03E200D0E16AE55213
:100BB000E16E1050E552E7CFD9FF1200D9CFE6FF22
:100BC000E1CFD9FF0D0EE126DF6AD950010FE96EA2
:100BD000DACFEAFFEE6AEE6AEE6AEE6AEE6AEE6A73
:100BE000EE6AEE6AEE6A0A0EDB6AD9CF10F0DACF4F
:100BF00011F0DBCFF3FFDB2AF3500F011024E96E75
:100C0000000E1120EA6EAA0EEF6ED9CF10F0DACFE7
:100C100011F00A0EDBCFF3FFDB2AF3501024E96E4C
:100C2000000E1120EA6EFE0EDBCFEFFFD9CF10F0E1
:100C3000DACF11F00A0EDBCFF3FFDB2AF3501024DA
:100C4000E96E000E1120EA6EFB0EDBCFEFFFD9CF6D
:100C500010F0DACF11F00A0EDBCFF3FFDB2AF350EE
:100C60001024E96E000E1120EA6EFD0EDBCFEFFFBF
:100C7000D9CF10F0DACF11F00A0EDBCFF3FFDB2A69
:100C8000F3501024E96E000E1120EA6EFC0EDBCF4B
:100C9000EFFF0A0EDBCFE6FFD950010FE66E000E24
:100CA000DA20E66E59DFE552E552E552E76E0C0EAA
:100CB000E7CFDBFFDB50AA0804E00C0EDB50BB08DB
:100CC00014E1010EDB2A0A0EDBCFE6FFD950010F3B
:100CD000E66E000EDA20E66E3FDFE552E552E552A1
:100CE000E76E0C0EE7CFDBFFE5D7D9CF10F0DACFF8
:100CF00011F00A0EDBCFF3FFDB2AF3500F011024B3
:100D0000E96E000E1120EA6E0C0EDBCFEFFFD9CF9B
:100D100010F0DACF11F00A0EDBCFF3FFDB2AF3502D
:100D20001024E96E000E1120EA6EBB0EEF6E0B0E62
:100D3000DB6A0A0EDB50F36E0B0EDBCFF4FFF350D1
:100D4000F45C14E2D9CF10F0DACF11F00B0EDB50C7
:100D50000F011024E96E000E1120EA6EEF50E66ECE
:100D6000E8EC01F0E5520B0EDB2AE3D720EC02F0B1
:100D70000D0EE15C02E2E16AE552E16EE552E7CF79
:040D8000D9FF120085
:0C0D8400D9CFE6FFE1CFD9FFE652480EC0
:100D9000E66E110EE66EDD0EE66ECC0EE66EBB0E56
:100DA000E66EAA0EE66E90EC03F0106E060EE15EA3
:100DB0001050E552E552E7CFD9FF1200D9CFE6FF38
:100DC000E1CFD9FFE652DF6A090EDF5C01E3EED026
:100DD000030EDF02F350E66E42EC09F0E552010823
:100DE00060E1DF50040DF3CFE9FFF4CFEAFF000E1E
:100DF000E9260F0EEA22020EE926000EEA22EF5043
:100E00004FE1DF50040DF3CFE9FFF4CFEAFF000E0E
:100E1000E9260F0EEA22EE52EF040CE0DF50040D3B
:100E2000F3CFE9FFF4CFEAFF000EE9260F0EEA2226
:100E3000EF0436E1DF50040DF3CFE9FFF4CFEAFF12
:100E4000000EE9260F0EEA22020EE926000EEA2223
:100E5000010EEF6EDF50040DF3CFE9FFF4CFEAFF90
:100E6000000EE9260F0EEA22EF6ADF50040DF3CFE1
:100E7000E9FFF4CFEAFF000EE9260F0EEA22EE5258
:100E8000EF6ADF50040DF3CFE9FFF4CFEAFF000E65
:100E9000E9260F0EEA22030EE926000EEA22EF6A87
:100EA00083D0030EDF02F328E66E42EC09F0E55230
:100EB000010839E1DF50040DF3CFE9FFF4CFEAFF79
:100EC000000EE9260F0EEA22EE52EF502CE1DF5021
:100ED000040DF3CFE9FFF4CFEAFF000EE9260F0E71
:100EE000EA22EE52010EEF6EDF50040DF3CFE9FF60
:100EF000F4CFEAFF000EE9260F0EEA22020EE926E1
:100F0000000EEA22EF6ADF50040DF3CFE9FFF4CFC1
:100F1000EAFF000EE9260F0EEA22030EE926000E74
:100F2000EA22010EEF6E030EDF02F350020FE66EAF
:100F300042EC09F0E552010837E1DF50040DF3CF30
:100F4000E9FFF4CFEAFF000EE9260F0EEA22EF5088
:100F50002BE1DF50040DF3CFE9FFF4CFEAFF000EE1
:100F6000E9260F0EEA22020EE926000EEA22EF6AB7
:100F7000DF50040DF3CFE9FFF4CFEAFF000EE926BE
:100F80000F0EEA22010EEF6EDF50040DF3CFE9FFE2
:100F9000F4CFEAFF000EE9260F0EEA22030EE9263F
:100FA000000EEA22010EEF6EDF2A0ED70F01256B2D
:100FB000DF6A090EDF5C54E2DF50040DF3CFE9FF76
:100FC000F4CFEAFF000EE9260F0EEA22020EE92610
:100FD000000EEA22EF0408E10F01010E266FDFCFB9
:100FE000E6FF56D8E55227D0DF50040DF3CFE9FFD6
:100FF000F4CFEAFF000EE9260F0EEA22EE52EF04CC
:1010000007E10F01010E276FDFCFE6FF58D8E55249
:10101000DF50040DF3CFE9FFF4CFEAFF000EE9261D
:101020000F0EEA22EF0407E10F01010E276FDFCF59
:10103000E6FF5CD8E552DF50040DF3CFE9FFF4CFB3
:10104000EAFF000EE9260F0EEA22030EE926000E43
:10105000EA22EF0403E10F01010E256FDF2AA9D771
:101060000F01260507E1255105E1266BE66A55D8F3
:10107000E55209D0270507E1250505E1276B010E9B
:10108000E66E4BD8E552E552E552E7CFD9FF1200A4
:10109000D9CFE6FFE1CFD9FF020EE66EFE0EDBCF21
:1010A000E6FF800EE66EFA0EE66EDEEC05F0E55227
:1010B000E552E552E552E552E7CFD9FF1200D9CF0C
:1010C000E6FFE1CFD9FF020EE66EFE0EDBCFE6FFB4
:1010D000810EE66EFA0EE66EDEEC05F0E552E552A4
:1010E000E552E552E552E7CFD9FF1200D9CFE6FF2E
:1010F000E1CFD9FF020EE66EFE0EDBCFE6FF820ED9
:10110000E66EFA0EE66EDEEC05F0E552E552E552CB
:10111000E552E552E7CFD9FF1200D9CFE6FFE1CF84
:10112000D9FF020EE66EFE0EDBCFE6FF830EE66E03
:10113000FA0EE66EDEEC05F0E552E552E552E552B8
:10114000E552E7CFD9FF1200D9CFE6FFE1CFD9FFB3
:10115000030EE126FD0EDBCFE9FFFE0EDBCFEAFF3B
:10116000010EEFCFDBFF020EDB6ADB50106E030EC9
:10117000E15C03E200D0E16AE552E16E1050E55215
:06118000E7CFD9FF1200C9
:0A118600D9CFE6FFE1CFD9FFE65212
:101190008DD8DF6A1B0EDF5C09E2DF50EA6A000FC0
:1011A000E96E0D0EEA22EF6ADF2AF4D7E552E55226
:1011B000E7CFD9FF1200D9CFE6FFE1CFD9FF9BD807
:1011C000FC0EDBCFE6FFFD0EDBCFE6FFFE0EDBCF36
:1011D000E6FF12D9E552E552E552E552E7CFD9FFD5
:1011E0001200D9CFE6FFE1CFD9FFE652FC0EDB506B
:1011F000DF6EFB0EDB50D880DF541AE37CD8DFCFE4
:10120000E6FF136ADF34FE0B1336126EFD0EDB5061
:101210001224106EFE0EDB501320116E10C0E6FF7C
:1012200011C0E6FFE9D8E552E552E552DF2AE1D7E1
:10123000E552E552E7CFD9FF1200D9CFE6FFE1CF63
:10124000D9FFE652DF6A57D8DF6A1B0EDF5C15E272
:10125000DFCFE6FF116ADF34FE0B1136106E1B0E76
:1012600010260D0E112210C0E6FF11C0E6FFC4D8F3
:10127000E552E552E552DF2AE8D7E552E552E7CFDD
:10128000D9FF1200D9CFE6FFE1CFD9FFFE0EEA6AFF
:10129000DB34FE0BEA36E96E1B0EE9260D0EEA2260
:1012A000EF5000D0E552E7CFD9FF1200D9CFE6FFCB
:1012B000E1CFD9FFE652DF6A1B0EDF5C17E2EA6A74
:1012C000DF34FE0BEA36E96E1B0EE9260D0EEA222C
:1012D000EF6AEA6ADF34FE0BEA36E96E1B0EE92696
:1012E0000D0EEA22EE52EF6ADF2AE6D7E552E5520A
:1012F000E7CFD9FF12008150800B01E0010E0D01F4
:10130000006F8150400B01E0010E016F8150200BF6
:1013100001E0010E026F8150100B01E0010E036F1E
:101320008150080B01E0010E046F8150040B01E0B5
:10133000010E056F8150020B01E0010E066F815016
:10134000010B076F8350800B01E0010E086F835083
:10135000400B01E0010E096F8350200B01E0010EEC
:101360000A6F8350100B01E0010E0B6F8350080BC6
:1013700001E0010E0C6F8350040B01E0010E0D6FB4
:101380008350020B01E0010E0E6F8350010B0F6FB3
:101390008050200B01E0010E106F8050100B01E017
:1013A000010E116F8050080B01E0010E126F80508A
:1013B000040B01E0010E136F8050020B01E0010EDF
:1013C000146F8050010B156F8250100B01E0010E5D
:1013D000166F8250080B01E0010E176F8250040B4C
:1013E00001E0010E186F8250020B01E0010E196F2F
:1013F0008250010B1A6F1200D9CFE6FFE1CFD9FF5F
:10140000FD0EDBCFE9FFFE0EDBCFEAFFEF50010A56
:101410003DE0010A01E074D0FC0EDB50EA6A000FE7
:10142000E96E0D0EEA22EF50010B27E1FD0EDBCF36
:10143000E9FFFE0EDBCFEAFFEE52EF2AFD0EDBCF17
:10144000E9FFFE0EDBCFEAFFEECF10F0EFCF11F099
:10145000020E0001115C10E3FD0EDBCFE9FFFE0E72
:10146000DBCFEAFF010EEF6EFD0EDBCFE9FFFE0ED4
:10147000DBCFEAFFEE52EF6A08D0FD0EDBCFE9FFCB
:10148000FE0EDBCFEAFFEE52EF6A3AD0FC0EDB50E5
:10149000EA6A000FE96E0D0EEA22EF50010B010817
:1014A00026E1FD0EDBCFE9FFFE0EDBCFEAFFEE52B9
:1014B000EF2AFD0EDBCFE9FFFE0EDBCFEAFFEECF1A
:1014C00010F0EFCF11F0020E0001115C0FE3FD0EE2
:1014D000DBCFE9FFFE0EDBCFEAFFEF6AFD0EDBCFCD
:1014E000E9FFFE0EDBCFEAFFEE52EF6A08D0FD0EF9
:1014F000DBCFE9FFFE0EDBCFEAFFEE52EF6A00D052
:08150000E552E7CFD9FF12000C
:08150800DACFE4FFE2CFDAFFC5
:10151000E9CFE4FFEACFE4FFF6CFE4FFF7CFE4FF43
:10152000F5CFE4FFF3CFE4FFF4CFE4FFFACFE4FF1D
:1015300000EE00F0100EE80403E3EECFE4FFFBD76B
:1015400000EE10F0090EE80403E3EECFE4FFFBD752
:10155000E652F2940D015D2B000E5E235F236023A3
:10156000632B6423652B66235351541107E005D088
:1015700054CDFAFF0D015351F96EFADF51CDE6FF5C
:1015800052CDE6FF00EC0FF0E552E552E55200EED9
:1015900018F0090EE80403E3E5CFEDFFFBD700EEFA
:1015A0000FF0100EE80403E3E5CFEDFFFBD7E5CF26
:1015B000FAFFE5CFF4FFE5CFF3FFE5CFF5FFE5CF89
:1015C000F7FFE5CFF6FFE5CFEAFFE5CFE9FFE5CF8F
:1015D000DAFF1100DACFE4FFE2CFDAFFE9CFE4FF70
:1015E000EACFE4FFF6CFE4FFF7CFE4FFF5CFE4FF67
:1015F000F3CFE4FFF4CFE4FFFACFE4FF00EE00F016
:10160000100EE80403E3EECFE4FFFBD700EE10F08A
:10161000090EE80403E3EECFE4FFFBD7E6529E9009
:1016200055CDE6FF56CDE6FFE4EC0EF0E552E5526F
:101630000D015751581107E005D058CDFAFF0D01A3
:101640005751F96EFADFE55200EE18F0090EE80482
:1016500003E3E5CFEDFFFBD700EE0FF0100EE8043B
:1016600003E3E5CFEDFFFBD7E5CFFAFFE5CFF4FFCE
:10167000E5CFF3FFE5CFF5FFE5CFF7FFE5CFF6FFC9
:10168000E5CFEAFFE5CFE9FFE5CFDAFF1100DACFDA
:10169000E4FFE2CFDAFFE9CFE4FFEACFE4FFF6CFE1
:1016A000E4FFF7CFE4FFF5CFE4FFF3CFE4FFF4CF9F
:1016B000E4FFFACFE4FF00EE00F0100EE80403E3CD
:1016C000EECFE4FFFBD700EE10F0090EE80403E3D1
:1016D000EECFE4FFFBD7E6529E9259CDBBFF0D0142
:1016E0005B515C1107E005D05CCDFAFF0D015B5149
:1016F000F96EFADFE55200EE18F0090EE80403E394
:10170000E5CFEDFFFBD700EE0FF0100EE80403E38A
:10171000E5CFEDFFFBD7E5CFFAFFE5CFF4FFE5CF4F
:10172000F3FFE5CFF5FFE5CFF7FFE5CFF6FFE5CF18
:10173000EAFFE5CFE9FFE5CFDAFF1100D9CFE6FFF9
:10174000E1CFD9FF9F0EE66E1CEC0FF0E552FD0EC7
:10175000DBCF51FDFE0EDBCF52FDFB0EDBCF53FD89
:10176000FC0EDBCF54FDFD0EDBCFE6FFFE0EDBCF24
:10177000E6FF00EC0FF0E552E552E552E7CFD9FF66
:101780001200D9CFE6FFE1CFD9FF040EE126F29A8D
:101790006DCDDFFF010E6ECDDBFF020E6FCDDBFFE7
:1017A000030E70CDDBFFF28ADECF04F0DECF05F052
:1017B000DECF06F0DDCF07F0DD52DD52040EE15C36
:1017C00003E200D0E16AE552E16EE552E7CFD9FFCE
:1017D0001200D9CFE6FFE1CFD9FF020EE126830E3A
:1017E000DF6EDE520C0EDD6ECC6ACC9E070ECD6E27
:1017F000FD0EDBCFE6FFFE0EDBCFE6FFE4EC0EF0E6
:10180000E552E5529F809D80FD0EDBCF55FDFE0E1B
:10181000DBCF56FDFB0EDBCF57FDFC0EDBCF58FDBB
:10182000020EE15C02E2E16AE552E16EE552E7CFC9
:10183000D9FF1200D9CFE6FFE1CFD9FF0F0EBA6E64
:101840009F829D82FE0EDB50BB6EFE0EDB500D01B3
:10185000596F5A6BFC0EDBCF5BFDFD0EDBCF5CFDE1
:08186000E552E7CFD9FF1200A9
:08186800D9CFE6FFE1CFD9FF63
:10187000080EE126DE6A240EDE6EF40EDE6EDD6AF0
:10188000DD52DD52DECF05F0DECF06F0DECF07F011
:10189000DDCF08F0DD52DD52055007E1240E0618B9
:1018A00004E1F40E071801E1085010E0055008E1CA
:1018B000900E061805E1D00E071802E1030E081875
:1018C00001E000D0700ED36E9B8C04D0700ED36EEE
:1018D0009B9C00D0D9CFE9FFDACFEAFFEECF04F02E
:1018E000EECF05F0EECF06F0EFCF07F0040E096E55
:1018F0000A6A0B6A0C6A82EC0EF0040E04C0DBFF6D
:10190000050E05C0DBFF060E06C0DBFF070E07C095
:10191000DBFFD950040FE96EDACFEAFFE80E096E5B
:10192000030E0A6E0B6A0C6AEECF04F0EECF05F0E0
:10193000EECF06F0EFCF07F082EC0EF007C0EDFF20
:1019400006C0EDFF05C0EDFF04C0EFFF136814688B
:10195000156A040EDBCF16F0050EDBCF17F0186A00
:101960001650135C106E17501458116E18501558FD
:10197000126E10C034FF11C035FFC26A0F01386B00
:10198000396B3A6B3B6B3C6B9690938E938C938A3E
:1019900093889386938493829380958E958C958A71
:1019A00095889586958495829580928A928892866C
:1019B0009284928292809488948694849482948073
:1019C000949C948EF19E080EE15C02E2E16AE5527D
:0A19D000E16EE552E7CFD9FF1200E7
:0619DA00D9CFE6FFE1CFCA
:1019E000D9FF050EE12634EC0CF0000EE66EE66A37
:1019F00034CFE6FF35CFE6FF9EEC0BF0E552E55223
:101A0000E552E552480EE66E110EE66EDD0EE66E0C
:101A1000CC0EE66EBB0EE66EAA0EE66E90EC03F000
:101A2000106E060EE15E1050C2EC06F011EC00F0F4
:101A3000F40EDE6E010EDE6EDE6ADD6ADD52DD5210
:101A4000D9CFE9FFDACFEAFFEE500D015D5DEE5030
:101A50005E59EE505F59EE50605906E35D6B5E6B68
:101A60005F6B606B69EC0FF00D010F0E635D000E94
:101A7000645906E3636B646B1DEC09F0040EDB2A0A
:101A8000140EF36E040EDBCFF4FFF350F45C04E3AA
:101A9000DEEC06F0040EDB6AF4EC03F0D1D7050EA1
:101AA000E15C02E2E16AE552E16EE552E7CFD9FF7F
:021AB000120022
:0E1AB200DACFE4FFE2CFDAFFE9CFE4FFEACFBC
:101AC000E4FFF6CFE4FFF7CFE4FFF5CFE4FFF3CF79
:101AD000E4FFF4CFE4FFFACFE4FF00EE00F0100ED5
:101AE000E80403E3EECFE4FFFBD700EE10F0090EAD
:101AF000E80403E3EECFE4FFFBD7E652D9CFE6FFDD
:101B0000E1CFD9FFE652C5EC0EF0DF6E0B013F517D
:101B10003F2BEA6A420FE96E0B0EEA22DFCFEFFF9E
:101B20003C0E3F5D01E33F6B412B9E9AE552E5522F
:101B3000E7CFD9FFE55200EE18F0090EE80403E301
:101B4000E5CFEDFFFBD700EE0FF0100EE80403E346
:101B5000E5CFEDFFFBD7E5CFFAFFE5CFF4FFE5CF0B
:101B6000F3FFE5CFF5FFE5CFF7FFE5CFF6FFE5CFD4
:0C1B7000EAFFE5CFE9FFE5CFDAFF110046
:041B7C00280EF66ECB
:101B8000000EF76E000EF86E0F010900F5502D6F74
:101B90000900F5502E6F03E12D6701D03DD00900FB
:101BA000F550286F0900F550296F0900F5502A6F8C
:101BB00009000900F550E96E0900F550EA6E0900C8
:101BC00009000900F5502B6F0900F5502C6F090032
:101BD0000900F6CF2FFFF7CF30FFF8CF31FF28CF26
:101BE000F6FF29CFF7FF2ACFF8FF0F012B5302E1B1
:101BF0002C5307E00900F550EE6E2B07F8E22C0796
:101C0000F9D72FCFF6FF30CFF7FF31CFF8FF0F0115
:0A1C10002D07000E2E5BBFD7120057
:061C1A00D9CFE6FFDACF8E
:101C2000E6FFE1CFD9FFE2CFDAFF726A716AFD0EFB
:101C3000DBB07288DBA202D0728C718CDBB4728E46
:101C4000DBA602D0718801D0718ADBA802D0728431
:101C500001D07294DBBA7186DBAC02D0A38A01D0CA
:101C6000A39ADBAE02D0A38801D0A398FB0EDB5071
:101C7000756EFC0EDBCF11F011C010F0116A105020
:101C8000766E728A718EE552E5CFDAFFE7CFD9FF23
:021C9000120040
:0E1C9200D9CFE6FFDACFE6FFE1CFD9FFE2CFF0
:101CA000DAFFAC6AAB6AFD0EDBB0AC88DBA202D017
:101CB000AC8CAB8CDBB4AC8EDBA602D0AB8801D095
:101CC000AB8ADBB8AC84DBBAAB86DBAC02D09D8AD6
:101CD00001D09D9ADBAE02D09D8801D09D98FB0E6D
:101CE000DB50AF6EFC0EDBCF11F011C010F0116AAB
:101CF0001050B06EAC8AAB8EE552E5CFDAFFE7CF7D
:041D0000D9FF1200F5
:0C1D0400036A026A016A006A200EE76EA2
:101D1000D8900436053606360736003601360236C8
:101D200003360950005C0A5001580B5002580C5001
:101D3000035809E30950005E0A50015A0B50025A39
:0C1D40000C50035A042AE72EE4D71200CE
:041D4C00D9CFE6FF06
:101D5000DACFE6FFE1CFD9FFE2CFDAFFE652F20EAB
:101D60000F01361771AC03D0369171B0368171B462
:101D7000368571B236877450DF6EDF50E552E5521A
:0A1D8000E5CFDAFFE7CFD9FF12002C
:061D8A00D9CFE6FFDACF1D
:101D9000E6FFE1CFD9FFE2CFDAFFE652F20E0F0104
:101DA0003717ABAC03D03791ABB03781ABB43785C5
:101DB000ABB23787AE50DF6EDF50E552E552E5CF6C
:081DC000DAFFE7CFD9FF1200A2
:081DC800D9CFE6FFDACFE6FFF8
:101DD000E1CFD9FFE2CFDAFFE652E652FC0EDBCFCD
:101DE000DEFFDBCFDDFF010EDB50CF6EDF50CE6EAE
:101DF000E552E552E552E5CFDAFFE7CFD9FF120011
:101E0000D9CFE6FFDACFE6FFE1CFD9FFE2CFDAFFA5
:101E1000E652E652FC0EDBCFDEFFDBCFDDFF010E2C
:101E2000DB50D76EDF50D66EE552E552E552E5CF76
:081E3000DAFFE7CFD9FF120031
:081E3800D9CFE6FFDACFE6FF87
:101E4000E1CFD9FFE2CFDAFFFD0EDB507F0BD56E7D
:101E5000D76AD66AF294FD0EDBAE02D0F28A01D0C8
:101E6000F29AD58EE552E5CFDAFFE7CFD9FF12001F
:101E7000FF0EE350196E480E01D04C0EE76EE72EB0
:101E8000FED7E76AE72EFED7192EF7D7000012001B
:101E9000380EF36E00EE00F00F0E01D81200EA606B
:101EA00002D0EE6AFCD7F350E9601200EE6AFCD76C
:101EB00010EE60F020EE60F0F86A0F9CBEEC0DF0C2
:0C1EC00003EC00F0EDEC0CF0FBD712007E
:041ECC000D01726B27
:101ED00012000D01720503E1726B849003D0010EB4
:061EE000726F8480120005
:0A1EE600FF0EE350E84E120000006A
:0C1EF00000D000D000D0E82EFAD712007D
:041EFC0000000000E2
:101F000000000000000000000000000000000000D1
:101F100000000000000000000000000000000000C1
:101F200000000000000000000000000000000000B1
:101F300000000000000000000000000000000000A1
:101F40000000000000000000000000000000000091
:101F50000000000000000000000000000000000081
:101F60000000000000000000000000000000000071
:0A1F70000000000000000000000067
:061F7A0000000000000061
:101F80000000000000000000000000000000000051
:101F90000000000000000000000000000000000041
:101FA0000000000000000000000000000000000031
:101FB0000000000000000000000000000000000021
:0B1FC000000000000000000000000016
:051FCB00000000000011
:101FD0000000000000000000000000000000000001
:101FE00000000000000000000000000000000000F1
:101FF00000000000000000000000000000000000E1
:1020000000000000000000000000000000000000D0
:1020100000000000000000000000000000000000C0
:1020200000000000000000000000000000000000B0
:1020300000000000000000000000000000000000A0
:102040000000000000000000000000000000000090
:072050000000000000000089
:0920570000000000000000000080
:102060000000000000000000000000000000000070
:0F20700000000000000000000000000000000061
:01207F000060
:102080000000000000000000000000000000000050
:0F209000000000000000000000C8000000000079
:01209F000040
:0220A000FFFF40
:0220A20000003C
:020000040030CA
:0100010008F6
:0100020001FC
:0100030024D8
:01000500BD3D
:010006008079
:010008000FE8
:01000900C036
:01000A000FE6
:01000B00E014
:01000C000FE4
:01000D0040B2
:00000001FF
